:100000000C9463000C948B000C948B000C947B0577
:100010000C947B050C947B050C948B000C948B004A
:100020000C948B000C948B000C948B000C948B0024
:100030000C948B000C948B000C948B000C948B0014
:100040000C9431050C948B000C94FF040C94D9048F
:100050000C948B000C948B000C948B000C948B00F4
:100060000C948B000C948B000000000024002700EF
:100070002A0000000008000201000003040700003D
:1000800000000000000000000000230026002900FE
:1000900000000000250028002B00040404040404D0
:1000A0000404020202020202030303030303010227
:1000B00004081020408001020408102001020408F6
:1000C0001020F3056E0811241FBECFEFD8E0DEBF6D
:1000D000CDBF12E0A0E0B1E0EAE8F1E102C0059096
:1000E0000D92AA30B107D9F723E0AAE0B2E001C02F
:1000F0001D92AB32B207E1F710E0C2E6D0E004C0D7
:100100002197FE010E94B208C136D107C9F70E94AB
:10011000C8060C94B8080C940000AF92BF92CF921E
:10012000DF92EF92FF920F931F93CF93DF936C01B7
:100130007B018B01040F151FEB015E01AE18BF0898
:10014000C017D10759F06991D601ED91FC9101904A
:10015000F081E02DC6010995892B79F7C501DF9162
:10016000CF911F910F91FF90EF90DF90CF90BF90B4
:10017000AF900895FC01538D448D252F30E0842FDE
:1001800090E0821B930B541710F0CF9608950197BF
:100190000895FC01918D828D981761F0A28DAE0FAC
:1001A000BF2FB11D5D968C91928D9F5F9F73928F33
:1001B00090E008958FEF9FEF0895FC01918D828D5F
:1001C000981731F0828DE80FF11D858D90E008952C
:1001D0008FEF9FEF0895FC01918D228D892F90E084
:1001E000805C9F4F821B91098F739927089587E543
:1001F00092E00E94EB0021E0892B09F420E0822F9D
:10020000089580E090E0892B29F00E94F700811189
:100210000C9400000895FC01A48DA80FB92FB11D06
:10022000A35ABF4F2C91848D90E001968F7399272C
:10023000848FA689B7892C93A089B1898C9183700A
:1002400080648C93938D848D981306C00288F38903
:10025000E02D80818F7D80830895EF92FF920F9330
:100260001F93CF93DF93EC0181E0888F9B8D8C8D62
:1002700098131AC0E889F989808185FF15C09FB756
:10028000F894EE89FF896083E889F9898081837019
:10029000806480839FBF81E090E0DF91CF911F91C8
:1002A0000F91FF90EF900895F62E0B8D10E00F5FE9
:1002B0001F4F0F731127E02E8C8D8E110CC00FB6BF
:1002C00007FCFACFE889F989808185FFF5CFCE0157
:1002D0000E940B01F1CFEB8DEC0FFD2FF11DE35AC6
:1002E000FF4FF0829FB7F8940B8FEA89FB898081DA
:1002F0008062CFCFCF93DF93EC01888D8823B9F054
:10030000AA89BB89E889F9898C9185FD03C0808120
:1003100086FD0DC00FB607FCF7CF8C9185FFF2CF9D
:10032000808185FFEDCFCE010E940B01E9CFDF91E7
:10033000CF910895833081F028F4813099F0823094
:10034000A9F008958730A9F08830C9F08430B1F45D
:10035000809180008F7D03C0809180008F77809393
:100360008000089584B58F7784BD089584B58F7D0E
:10037000FBCF8091B0008F778093B000089580917B
:10038000B0008F7DF9CF1F93CF93DF93282F30E0FC
:10039000F901EE58FF4F8491F901E255FF4FD491D6
:1003A000F901E656FF4FC491CC23A9F0162F811115
:1003B0000E949A01EC2FF0E0EE0FFF1FE057FF4F75
:1003C000A591B4918FB7F894EC91111108C0D09514
:1003D000DE23DC938FBFDF91CF911F910895DE2B39
:1003E000F8CFCF93DF9390E0FC01E255FF4F2491CB
:1003F00086569F4FFC0184918823D1F090E0880FAE
:10040000991FFC01E859FF4FA591B491FC01E057F9
:10041000FF4FC591D49161110EC09FB7F8948C9194
:10042000E22FE0958E238C932881E223E8839FBFFF
:10043000DF91CF9108958FB7F894EC91E22BEC9374
:100440008FBFF6CF3FB7F89480914F029091500242
:10045000A0915102B091520226B5A89B05C02F3F32
:1004600019F00196A11DB11D3FBFBA2FA92F982FDA
:100470008827BC01CD01620F711D811D911D42E0D5
:10048000660F771F881F991F4A95D1F708958F929D
:100490009F92AF92BF92CF92DF92EF92FF924B0169
:1004A0005C010E9422026B017C010E9422026C19F5
:1004B0007D098E099F09683E734081059105A8F367
:1004C00021E0821A9108A108B10888EEC80E83E0E5
:1004D000D81EE11CF11C81149104A104B10429F778
:1004E000FF90EF90DF90CF90BF90AF909F908F9054
:1004F000089520915502309156022817390771F45A
:100500009091530280915402981741F0E091530268
:10051000F0E0E65FFD4F808190E008958FEF9FEF60
:1005200008950895EF92FF920F931F93CF93DF9357
:10053000DC015C96ED90FC905D97E114F10479F498
:1005400081E090E013969C938E93129790E080E068
:10055000DF91CF911F910F91FF90EF9008955196E9
:10056000ED91FC91529750968C915097982F9095C1
:100570000FB75E962C915E97122F127021FD609539
:10058000F8942081112319F1282B2083E70121976A
:10059000F1F728E0462F50E0308160FF1AC0382B79
:1005A0003083E7012197F1F7BA01759567952150DE
:1005B00089F7112381F08081892380830FBF5C96A6
:1005C0008D919C910197F1F781E090E0C1CF2923B3
:1005D000DCCF3923E5CF9081892BEFCF20915502D5
:1005E000309156022817390771F4809154022091F6
:1005F000530290E0805C9F4F821B910960E470E0A1
:100600000E948A08089590E080E0089520915502A4
:100610003091560228173907B9F49091530280910E
:100620005402981789F0E0915302F0E0E65FFD4F25
:1006300080812091530230E02F5F3F4F2F7333278B
:100640002093530290E008958FEF9FEF089508954F
:1006500090E080E00895CF93DF93EC0160E08E811D
:100660000E94C30161E08E810E94C30160E08E811F
:100670000E94C3018BE891E00197F1F7DF91CF91E0
:100680000895CF92DF92EF92FF920F931F93CF9333
:10069000DF936C017C0187E0E80EF11CD0E0C0E044
:1006A000062F10E0B8010C2E02C0759567950A94CC
:1006B000E2F76170F70181917F010E94C3012196E9
:1006C000C430D10579F7C601DF91CF911F910F9109
:1006D000FF90EF90DF90CF900C942B03CF92DF929E
:1006E000EF92FF920F931F93CF93DF93EC01F62EBF
:1006F000642F8C810E94C3018D818F3F19F060E0CF
:100700000E94C3010F2D10E08F8584FF25C06E016C
:1007100087E0C80ED11CF12CE12CB8010E2C02C0D0
:10072000759567950A94E2F76170F60181916F0102
:100730000E94C301FFEFEF1AFF0A88E0E816F104F8
:1007400061F7CE01DF91CF911F910F91FF90EF9054
:10075000DF90CF900C942B03B80184E075956795DA
:100760008A95E1F7CE010E9441036F2DCE01DF9102
:10077000CF911F910F91FF90EF90DF90CF900C944D
:10078000410340E0682F84EF92E00C946E03CF9316
:10079000DF9381E0809307031092080380E4809345
:1007A000090380E180930A0380E580930B0361E0F5
:1007B0008091F8020E94F1018091F9028F3F19F0B7
:1007C00061E00E94F10161E08091FA020E94F10172
:1007D000C4EFD2E09E01245F32408091030384FD88
:1007E0000BC084E090E021962817390744F461E0BB
:1007F0008E810E94F101EECF88E090E0F4CF8BE390
:100800009DE00197F1F760E08091F8020E94C3013A
:1008100060E08091FA020E94C3018091F9028F3F4B
:1008200019F060E00E94C3018091030384FD39C088
:1008300063E084EF92E00E944103CBE4D6E4CE0172
:100840000197F1F763E084EF92E00E944103219762
:10085000F1F763E084EF92E00E94410383E592E0C8
:100860000197F1F762E084EF92E00E9441038091EA
:10087000030380620E94C10384E0809304038CE040
:100880000E94C10381E00E94C1038BE39FE10197B5
:10089000F1F782E08093050386E0DF91CF910C941D
:1008A000C10380620E94C1038BE496E40197F1F7D3
:1008B0008091030380620E94C10383E592E0019767
:1008C000F1F78091030380620E94C103D0CF909121
:1008D0000703891710F08FEF890FE82FF0E0EC5035
:1008E000FD4F848980680C94C10341E00E946E032F
:1008F00081E090E00895FB0101900020E9F7319735
:10090000AF01461B570BDC01ED91FC910280F38196
:10091000E02D09940F931F93CF93DF93EC010E9476
:100920007B048C0160E371E0CE010E947B04800FA8
:10093000911FDF91CF911F910F91089563E371E0B3
:1009400087E592E00E948A0463E471E08CE093E022
:100950000E948A046DE471E087E592E00E948A04B7
:100960006CE571E08CE093E00E948A0465E771E039
:1009700087E592E00E948A0465E871E08CE093E0EC
:100980000E948A0468E971E087E592E00E948A0487
:100990006AE18CE093E00E94920260E371E08CE0F7
:1009A00093E00E947B046FE971E087E592E00C948C
:1009B0008A041F920F920FB60F9211242F933F9328
:1009C0004F935F936F937F938F939F93AF93BF9357
:1009D000EF93FF9387E592E00E940B01FF91EF9167
:1009E000BF91AF919F918F917F916F915F914F9147
:1009F0003F912F910F900FBE0F901F9018951F924F
:100A00000F920FB60F9211242F938F939F93EF9312
:100A1000FF93E0916702F09168028081E0916D029E
:100A2000F0916E0282FD1BC09081809170028F5FF9
:100A30008F7320917102821741F0E0917002F0E013
:100A4000E95AFD4F958F80937002FF91EF919F912E
:100A50008F912F910F900FBE0F901F90189580814E
:100A6000F4CF1F920F920FB60F9211242F933F9342
:100A70008F939F93AF93BF9380914B0290914C02C1
:100A8000A0914D02B0914E0230914A0223E0230F13
:100A90002D3758F50196A11DB11D20934A02809370
:100AA0004B0290934C02A0934D02B0934E02809162
:100AB0004F0290915002A0915102B09152020196C2
:100AC000A11DB11D80934F0290935002A09351023B
:100AD000B0935202BF91AF919F918F913F912F910F
:100AE0000F900FBE0F901F90189526E8230F0296C7
:100AF000A11DB11DD2CF1F920F920FB60F921124DC
:100B00002F933F934F935F936F937F938F939F9315
:100B1000AF93BF93EF93FF93E0915502F09156028C
:100B2000309749F0A685B7858585968D91FF14C0CD
:100B30009C918923A1F4FF91EF91BF91AF919F9177
:100B40008F917F916F915F914F913F912F910F9076
:100B50000FBE0F901F9018959C91892361F7A38970
:100B6000B4899C918589809589238C9386899789FE
:100B70000197F1F7608D718DA685B785558538E0B1
:100B800020E0CB010197F1F7822F90E095958795B2
:100B9000282F4C91452309F02068315091F7868D1C
:100BA00081FD20958091540290E001968F739927E2
:100BB00030915302381799F0A0915402B0E0A65F2B
:100BC000BD4F2C9380935402828D938D0197F1F742
:100BD000A389B4898C919589892B8C93ACCF868D10
:100BE0008160868FF1CF10925A021092590288EEDE
:100BF00093E0A0E0B0E080935B0290935C02A0934E
:100C00005D02B0935E0224E031E0309358022093FD
:100C1000570225EC30E0309364022093630224EC09
:100C200030E0309366022093650220EC30E0309390
:100C300068022093670221EC30E030936A0220932F
:100C4000690222EC30E030936C0220936B0226ECB8
:100C500030E030936E0220936D0210927002109279
:100C60007102109272021092730210920F0310928E
:100C70000E038093100390931103A0931203B0937B
:100C8000130382E291E090930D0380930C03109282
:100C90002303109222031092250310922403109232
:100CA00027031092260310922903109228036091C3
:100CB0002A036E7F6D7F60932A036695617081E0E1
:100CC00068278AE00E94C30161E08AE00E94F10186
:100CD000E8EBF0E0E491E0931C03E4EAF0E0E49157
:100CE000F0E0EE0FFF1FE057FF4F85919491909336
:100CF0001E0380931D0360E089E00E94F101809152
:100D00002A0381FD04C061E089E00E94C30189E0FB
:100D100080931803E7EBF0E0E491E0931903E3EA32
:100D2000F0E0E491F0E0EE0FFF1FEA57FF4F8591EE
:100D3000949190931B0380931A031092F7021092E0
:100D4000F60286E191E09093F5028093F4028CE044
:100D50008093F8028FEF8093F9028BE08093FA0280
:100D600085E08093FB0284E08093FC0283E0809323
:100D7000FD0282E08093FE021092FF0210920003B7
:100D80001092010310920203109203030C94C70304
:100D9000789484B5826084BD84B5816084BD85B556
:100DA000826085BD85B5816085BD80916E00816062
:100DB00080936E0010928100809181008260809308
:100DC000810080918100816080938100809180000A
:100DD0008160809380008091B10084608093B10035
:100DE0008091B00081608093B00080917A0084602F
:100DF00080937A0080917A00826080937A0080915B
:100E00007A00816080937A0080917A008068809374
:100E10007A001092C1000E94C7031092270310921B
:100E2000260310922503109224031092230310929C
:100E300022038DE991E090932903809328039091F8
:100E40001803963108F047C02DEB30E030932303B0
:100E5000209322032BE931E03093250320932403D0
:100E60002CE231E030932703209326032091680081
:100E700084E0983048F031E09E3008F430E081E0C2
:100E800001C0880F3A95EAF7822B809368002DE61F
:100E900030E0983050F02BE630E09E3030F02CE619
:100EA00030E0963110F030E020E0309320032093C2
:100EB0001F03292F30E0983008F0C0C081E001C046
:100EC000880F9A95EAF780932103809128039091E7
:100ED00029030197F1F78091260390912703892B2D
:100EE00049F1E0915502F091560283E0EC30F807A9
:100EF00009F1309739F0A389B4899C91858980954F
:100F000089238C9380912A038E7F80932A031092E9
:100F10005402109253028CE093E090935602809317
:100F20005502E0911F03F0912003808190912103ED
:100F3000892B8083E0916702F091680282E08083D0
:100F4000E0916302F09164021082E0916502F091F9
:100F500066028FEC808310926F02E0916B02F09139
:100F60006C0286E08083E0916902F0916A028081E0
:100F700080618083E0916902F0916A0280818860DB
:100F80008083E0916902F0916A02808180688083A9
:100F9000E0916902F0916A0280818F7D808363EC29
:100FA00071E087E592E00E948A0464E670E080E0E8
:100FB00090E00E94470260E08DE00E94F10161E054
:100FC00088E00E94F10161E087E00E94F10161E0A8
:100FD00086E00E94F101CFE7D0E00BEB10E097EA4A
:100FE000E92E90E0F92E20E0C22E20E0D22EFE0164
:100FF0008491F801A490F701B490B1102CC081E065
:101000000E94670468ED71E084EF92E00E947B0427
:1010100060E087E00E94C30161E086E00E94C301B6
:1010200060E088E00E94C301C114D10401F30E9472
:10103000F7008823E1F20E940000D9CF9E3040F4EF
:101040002850310981E001C0880F2A95EAF73BCF8B
:101050002E503109F7CF81110E949A01EB2DF0E05B
:10106000EE0FFF1FEA57FF4FA591B4918C91A82274
:1010700009F4C5CF81E00E94670469EE71E084EF56
:1010800092E00E947B0482E00E94670469EF71E0B5
:1010900084EF92E00E947B0481E00E94670469EE85
:1010A00071E084EF92E00E947B0460E086E00E94A1
:1010B000C30161E088E00E94C30161E087E00E9413
:1010C000C3010E949E040E949E040E949E0468EE3A
:1010D00073E080E090E00E944702A6CF82E291E0B8
:1010E00090930D0380930C038091550290915602CA
:1010F0008C50934071F4E0911F03F0912003908194
:10110000809121038095892380831092560210924A
:101110005502089597FB072E16F4009407D077FD2B
:1011200009D00E949E0807FC05D03EF49095819559
:101130009F4F0895709561957F4F0895AA1BBB1B23
:1011400051E107C0AA1FBB1FA617B70710F0A61BC7
:10115000B70B881F991F5A95A9F780959095BC01E8
:10116000CD010895EE0FFF1F0590F491E02D099435
:1011700010E0C2E6D0E004C0FE010E94B208219651
:0A118000C336D107C9F7F894FFCF7A
:10118A00000000002D018D00BA007A01EB00C900B1
:10119A00DD000000000075048D002803270300000D
:1011AA00000092028D0028039102EE0206037902E2
:1011BA000D0A0053656E64696E67204D657373612D
:1011CA0067650041542B434D47463D3100536574D2
:1011DA0020534D53204E756D6265720041542B4366
:1011EA004D47533D222B3233373637363631323775
:1011FA003038220D0053657420534D5320436F6ECF
:10120A0074656E7400474153204C4541434B414736
:10121A0045204953204F4E0046696E697368004D58
:10122A0065737361676520686173206265656E2006
:10123A0073656E7420746F20466C6F72656E746984
:10124A006E6F0047534D2053494D39303061204964
:10125A005320524541445900474153204E4F542090
:10126A00444554454354454400474153204953207B
:10127A0044455445435445440053454E44494E471A
:0A128A00204D4553534147455300E2
:107E0000112484B714BE81FFF0D085E080938100F7
:107E100082E08093C00088E18093C10086E0809377
:107E2000C20080E18093C4008EE0C9D0259A86E02C
:107E300020E33CEF91E0309385002093840096BBD3
:107E4000B09BFECF1D9AA8958150A9F7CC24DD24C4
:107E500088248394B5E0AB2EA1E19A2EF3E0BF2EE7
:107E6000A2D0813461F49FD0082FAFD0023811F036
:107E7000013811F484E001C083E08DD089C08234E0
:107E800011F484E103C0853419F485E0A6D080C0E4
:107E9000853579F488D0E82EFF2485D0082F10E0AE
:107EA000102F00270E291F29000F111F8ED06801E7
:107EB0006FC0863521F484E090D080E0DECF843638
:107EC00009F040C070D06FD0082F6DD080E0C81688
:107ED00080E7D80618F4F601B7BEE895C0E0D1E017
:107EE00062D089930C17E1F7F0E0CF16F0E7DF06D8
:107EF00018F0F601B7BEE89568D007B600FCFDCFD4
:107F0000A601A0E0B1E02C9130E011968C91119780
:107F100090E0982F8827822B932B1296FA010C0160
:107F200087BEE89511244E5F5F4FF1E0A038BF0790
:107F300051F7F601A7BEE89507B600FCFDCF97BE46
:107F4000E89526C08437B1F42ED02DD0F82E2BD052
:107F50003CD0F601EF2C8F010F5F1F4F84911BD097
:107F6000EA94F801C1F70894C11CD11CFA94CF0C13
:107F7000D11C0EC0853739F428D08EE10CD085E9AC
:107F80000AD08FE07ACF813511F488E018D01DD067
:107F900080E101D065CF982F8091C00085FFFCCF94
:107FA0009093C60008958091C00087FFFCCF809118
:107FB000C00084FD01C0A8958091C6000895E0E648
:107FC000F0E098E1908380830895EDDF803219F02E
:107FD00088E0F5DFFFCF84E1DECF1F93182FE3DFCA
:107FE0001150E9F7F2DF1F91089580E0E8DFEE27F6
:047FF000FF270994CA
:027FFE00040479
:0400000300007E007B
:00000001FF
